:100000001FC043C042C041C008C43FC03EC03DC045
:100010003CC03BC03AC039C038C07FC0D9C0D9C18C
:10002000DBC1DDC1E4C1E6C1E8C1EFC1FAC1010233
:100030000408102001010101010100380037E1032B
:1000400011241FBECFE5D2E0DEBFCDBF10E0A0E699
:10005000B0E0EAEAFBE002C005900D92A638B107D5
:10006000D9F720E0A6E8B0E001C01D92AF3FB2078B
:10007000E1F710E0C0E4D0E003C02297FE0161D5B3
:10008000CE33D107D1F7D0D48EC5BACF10929A0013
:1000900010929B0010929900109287001092880095
:1000A000109286008093B00087B3856087BBC29AA8
:1000B000C09AB89888EA8DB980EF8EB91092AE00D8
:1000C0000895909186009031E1F3E0918800F0E08E
:1000D000E757FF4F8083809188008F5F8F708093F8
:1000E0008800809186008F5F8093860008958091BC
:1000F00099008823E1F3E0919A00F0E0E456FF4F85
:10010000808190919A009F5F9F7090939A00909148
:10011000990091509093990008951F920F920FB6F5
:100120000F9211242F933F934F935F936F937F937D
:100130008F939F93AF93BF93EF93FF938091AE0004
:10014000811107C085B780728093AF0085B78F7D1E
:1001500085BF1092AD001092AC00B89886B3982F6E
:1001600095709430D9F380FD17C08091AE0088233C
:1001700069F0E091B200F091B300309739F08091CE
:100180009900882319F080919900099588EF8DB91D
:1001900081E08093AE0009C088EA8DB91092AE006C
:1001A00085B79091AF00892B85BF80EF8EB9FF9105
:1001B000EF91BF91AF919F918F917F916F915F91DF
:1001C0004F913F912F910F900FBE0F901F90189558
:1001D0001F920F920FB60F9211242F933F934F93BC
:1001E0005F936F937F938F939F93AF93BF93EF939F
:1001F000FF938091AC009091AD008230910509F49D
:100200004DC028F4009761F00197D9F09DC084306B
:10021000910509F44CC090F0059709F475C094C09D
:100220008FB1882331F08FB186959091B0008913FA
:100230005FC0789B7FC081E090E07EC08FB181116C
:1002400057C0E091B400F091B500309709F00995DE
:10025000809186008823D1F0E0918700F0E0E75795
:10026000FF4F80818FB9809187008F5F8F7080935F
:1002700087008091860081508093860082E090E024
:100280009093AD008093AC00B89A06C0B8981FB8A0
:100290008EE78EB988EA8DB980E755C083E090E09B
:1002A0009093AD008093AC00B8981FB84BC085E028
:1002B00090E09093AD008093AC00B89880E78EB941
:1002C00086B382FFFDCF80FD3FC086B3857084304A
:1002D000E1F38530C9F5E091B200F091B3003097B9
:1002E00039F080919900882319F08091990009953F
:1002F00088EA8DB980E78EB91092AE0085B79091EB
:10030000AF00892B85BF20C080919900803190F487
:10031000E0919B008FB1F0E0E456FF4F8083809125
:100320009B008F5F8F7080939B00809199008F5FFF
:100330008093990084E090E09093AD008093AC00AE
:100340001FB8B89A8EE78EB9FF91EF91BF91AF9128
:100350009F918F917F916F915F914F913F912F91DD
:100360000F900FBE0F901F901895862F8FCE862F5F
:10037000A8CEBDCE7093B3006093B2000895709381
:10038000B5006093B4000895FF920F931F93CF932D
:10039000DF93C82F1092B6000FEF080F81EB90E0AB
:1003A000E8DF882321F0813009F443C0C9C000236D
:1003B00009F4D1C00EEF0C0F81EB90E0DADF90E092
:1003C000FC013197E830F10508F0BAC0E15FFF4F5A
:1003D000099484E890E005C080E890E024C08BE7B1
:1003E00090E09093B9008093B80081E015C08CE74D
:1003F00090E019C086E690E00AC088E690E090930D
:10040000B9008093B80083E107C084E690E0909340
:10041000B9008093B80082E08093B6001092B700D4
:100420008FC080E690E09093B9008093B80084E09C
:10043000F3CF002309F48FC00EEF0C0F81EB90E097
:1004400098DF823049F1843009F44CC0813009F0E2
:1004500077C0023008F47FC081EB90E08ADFD82FAC
:1004600081EB90E086DF482F8FEF8D0F853008F00D
:1004700072C0D23009F46FC0423008F06CC00CEF8B
:100480000C0F8D2F90E065E070E0D2D2FC01E654B5
:10049000FF4F21E030E022C0033008F45CC081EB64
:1004A00090E067DF823009F056C081EB90E061DFB9
:1004B000D82F81EB90E05DDF482FD13019F0D43098
:1004C00009F049C00BEF0C0F8D2F90E065E070E054
:1004D000AFD2FC01E654FF4F22E030E031832083AD
:1004E00042832EC00530B8F181EB90E042DF8130CD
:1004F00091F581EB90E03DDFD82F81EB90E039DF83
:10050000F82E81EB90E035DF182F81EB90E031DFA2
:10051000482F8FEF8D0F8530F0F4D230E1F009EFE6
:100520000C0F8D2F90E065E070E082D2FC01E65464
:10053000FF4F23E030E031832083F2821383448332
:10054000C0E0D0E010E0C017D1072CF481EB90E0C0
:1005500010DF2196F8CFDF91CF911F910F91FF907F
:1005600008959091B7008091B600981790F480910B
:10057000B700E091B800F091B900E80FF11D60817B
:1005800081EB90E0F4DE8091B7008F5F8093B7003D
:10059000089560E081EB90E0EACE61E081E0DED199
:1005A00061E083E0DBD161E084E0D8D161E085E007
:1005B000D5D164E281EB90E0D8DE61EB72E081EBB3
:1005C00090E0DDDE64EC71E081EB90E0D3CE2F9221
:1005D0003F924F925F926F927F928F929F92AF92D3
:1005E000BF92CF92DF92EF92FF920F931F93CF9320
:1005F000DF93CDB7DEB72C970FB6F894DEBF0FBEF2
:10060000CDBF9AEB892E90E0992E28EDC22E20E0E6
:10061000D22EB12CE12CF12CD4012D913C91F6017C
:1006200040815181870108521F4F2417350779F403
:10063000F701E654FF4F9281D80112968C911297E0
:10064000981305C0938113968C919817A9F02130C7
:10065000310509F0ABC0F40162818B2DB6D1F401F4
:1006600042819381848120813181D6012D933C93F5
:10067000F801428393838483F5E0EF0EF11C25E0BB
:10068000820E911C35E0C30ED11CB3944EE1E416EA
:10069000F10411F609D188ED282E80E0382E10E003
:1006A0009B01442737FD4095542F29873A874B8774
:1006B0005C87D1018D919C911197039709F056C0E9
:1006C00012964C901297512C612C712C14966C91AF
:1006D00070E080E090E024E630E040E050E0DDD1E2
:1006E00049015A0129853A854B855C8528193909C4
:1006F0004A095B0949015A01D10113968C91A30162
:100700009201280F311D411D511DCA01B90124E676
:1007100030E040E050E0C1D1B22FA32FF42FE52FFD
:10072000C501B4012B2F3A2F4F2F5E2F92D14B01D1
:100730005C01C301B20124E630E040E050E0ADD1FD
:1007400029833A834B835C836D837E838F83988771
:1007500089819A81AB81BC8188159905AA05BB0561
:1007600010F061E001C060E0812F2FD195E0290EEB
:10077000311C1F5F163009F09CCF2C960FB6F894F1
:10078000DEBF0FBECDBFDF91CF911F910F91FF90C4
:10079000EF90DF90CF90BF90AF909F908F907F9021
:1007A0006F905F904F903F902F90089522303105C9
:1007B00009F055CFD40112966C9170E08B2D99D031
:1007C0004ECF80E090E0FC01E852FF4F1182108292
:1007D00012821382148205968E319105A1F780E072
:1007E00090E0FC01E654FF4F1182108212821382C6
:1007F000148205968E319105A1F7089583B7887FFD
:1008000083BF8AB58C7F81608ABD83B7877F83BFB2
:1008100083B7887F836083BF089578941F920F9277
:100820000FB60F9211242F933F938F939F93AF9303
:10083000BF938091F7009091F800A091F900B091DA
:10084000FA003091F6002CE7230F2D3728F02FEF18
:10085000230F0196A11DB11D2093F6008093F70090
:100860009093F800A093F900B093FA008091FB00F8
:100870009091FC00A091FD00B091FE000196A11D99
:10088000B11D8093FB009093FC00A093FD00B093FA
:10089000FE00BF91AF919F918F913F912F910F904B
:1008A0000FBE0F901F9018952FB7F8946091F70026
:1008B0007091F8008091F9009091FA002FBF08958F
:1008C000789480B7806880BF80B7806480BF8CB523
:1008D00080648CBD8FEF8DBD80B7807F876080BFC7
:1008E00089B7846089BF8ADF86B1876086B9379A05
:1008F00008951F93CF93DF93182FEB0161E02ED063
:100900001C161D0614F060E004C0CF3FD10534F082
:1009100061E0812FDF91CF911F9157C0111106C067
:100920008AB58F7380688ABDC9BD14C0113031F497
:100930008AB58F7C80628ABDC8BD0CC0143031F48A
:100940008CB58F7C80628CBDCBBD04C0C038D10516
:10095000FCF6D9CFDF91CF911F910895CF93DF930C
:1009600090E0FC01E25DFF4F2491FC01EC5CFF4F45
:100970008491882339F190E0FC01E45CFF4FA4915D
:10098000B0E0FC01E65CFF4F8491611106C09FB7A7
:10099000F8948C912095822313C0623069F4C82F9B
:1009A000D0E09FB7F8948C91322F309583238C93AD
:1009B0008881822B888305C09FB7F8948C91822B05
:1009C0008C939FBFDF91CF910895A82FB0E0FD01D8
:1009D000E25DFF4F9491FD01EC5CFF4FE491EE234B
:1009E00011F1811103C08AB58F7304C0813021F4E5
:1009F0008AB58F7C8ABD05C0843019F48CB58F7C94
:100A00008CBDF0E0E65CFF4FA491B0E02FB7611120
:100A100005C0F8948C919095892303C0F8948C912B
:100A2000892B8C932FBF08954BDFB7DDD0DDFECF30
:100A30000024552704C0080E591F880F991F0097DE
:100A400029F076956795B8F37105B9F7802D952F44
:100A50000895A1E21A2EAA1BBB1BFD010DC0AA1FFF
:100A6000BB1FEE1FFF1FA217B307E407F50720F017
:100A7000A21BB30BE40BF50B661F771F881F991F92
:100A80001A9469F760957095809590959B01AC01DB
:100A9000BD01CF01089568940013E894A0E0B0E090
:100AA000E3E5F5E01DC0EFEFE7F959016A015E23C8
:100AB000550FEE08FE2C87019B01AC019E23990F78
:100AC000660B762FCB0141D0CDB7DEB7EAE024C06C
:100AD0002F923F924F925F926F927F928F929F924E
:100AE000AF92BF92CF92DF92EF92FF920F931F933C
:100AF000CF93DF93CDB7DEB7CA1BDB0B0FB6F894ED
:100B0000DEBF0FBECDBF09942A88398848885F842C
:100B10006E847D848C849B84AA84B984C884DF809D
:100B2000EE80FD800C811B81AA81B981CE0FD11D81
:100B30000FB6F894DEBF0FBECDBFED010895EE0FE6
:100B4000FF1F0590F491E02D0994DF93CF939F92BE
:100B5000A0E49A2E0024D001E001F001169507953B
:100B6000F794E794D794C794B794A79448F410687F
:100B7000A20FB31FC41FD51FE61FF71F081E191EA3
:100B8000220F331F441F551F661F771F881F991F91
:100B90009A9421F79D01AE01BF01C00111249F90DD
:0A0BA000CF91DF910895F894FFCF84
:100BAA00000000010001001300FE01FEFF07FF0123
:100BBA00FE0102FE01FE0104FFFFFF04010103051D
:060BCA0000010000010023
:00000001FF
