:1000000016C030C02FC02EC045C22CC02BC02AC085
:1000100029C028C027C026C025C067C09CC00102D7
:1000200004081020010101010101003800371124EA
:100030001FBECFE5D2E0DEBFCDBF10E0A0E6B0E04E
:10004000E6E9F6E002C005900D92A038B107D9F7B5
:1000500020E0A0E8B0E001C01D92AD3BB207E1F79F
:1000600014D317C3CDCF1092940010929500109224
:100070009300109281001092820010928000809371
:10008000AA00B89888EA8DB980EF8EB91092A800BE
:100090000895909180009031E1F3E0918200F0E0CA
:1000A000ED57FF4F8083809182008F5F8F70809328
:1000B0008200809180008F5F8093800008958091FE
:1000C00093008823E1F3E0919400F0E0EA56FF4FBB
:1000D0008081909194009F5F9F7090939400909185
:1000E000930091509093930008951F920F920FB632
:1000F0000F9211248F939F938091A800811107C0C4
:1001000085B780728093A90085B78F7D85BF1092D7
:10011000A7001092A600B89886B3982F95709430D7
:10012000D9F380FD06C088EF8DB981E08093A800E7
:1001300009C088EA8DB91092A80085B79091A900EE
:10014000892B85BF80EF8EB99F918F910F900FBE45
:100150000F901F9018951F920F920FB60F921124B7
:100160002F933F934F935F936F937F938F939F93BF
:10017000AF93BF93EF93FF938091A6009091A70058
:100180008230910509F44DC028F4009761F0019781
:1001900011F19DC08430910509F44CC0C8F0059759
:1001A00009F475C094C08FB1882331F08FB1869562
:1001B0009091AA0089135FC0789B7FC0E091AE0048
:1001C000F091AF00309709F0099581E090E077C099
:1001D0008FB1811150C0809180008823D1F0E091CF
:1001E0008100F0E0ED57FF4F80818FB98091810051
:1001F0008F5F8F7080938100809180008150809309
:10020000800082E090E09093A7008093A600B89AC7
:1002100006C0B8981FB88EE78EB988EA8DB980E716
:1002200055C083E090E09093A7008093A600B89813
:100230001FB84BC085E090E09093A7008093A60084
:10024000B89880E78EB986B382FFFDCF80FD3FC0AE
:1002500086B385708430E1F38530C9F5E091AC0058
:10026000F091AD00309739F080919300882319F018
:1002700080919300099588EA8DB980E78EB9109234
:10028000A80085B79091A900892B85BF20C08091D7
:100290009300803190F4E09195008FB1F0E0EA5640
:1002A000FF4F8083809195008F5F8F7080939500C2
:1002B000809193008F5F8093930084E090E090930F
:1002C000A7008093A6001FB8B89A8EE78EB9FF9159
:1002D000EF91BF91AF919F918F917F916F915F91BE
:1002E0004F913F912F910F900FBE0F901F90189537
:1002F000862FB9CE862FCDCEE2CE7093AD0060931F
:10030000AC0008957093AF006093AE000895CF9352
:10031000C82F1092B0008BEA90E0EEDF882319F02E
:100320008130D1F16FC0C23008F46CC08BEA90E02C
:10033000E3DF8330D9F078F48130A9F0823009F01E
:1003400061C088E790E09093B3008093B200109270
:10035000B10085E014C08430A9F0853009F052C0A6
:1003600080E690E011C08DE790E00EC084E690E05A
:100370009093B3008093B2001092B10084E1809317
:10038000B00040C082E690E09093B3008093B2004A
:100390001092B10082E0F3CFC230A0F18BEA90E07E
:1003A000ABDF813019F08230B1F02CC0C43050F195
:1003B0008BEA90E0A1DFC82F8BEA90E09DDF9FEFF2
:1003C0009C0F9530F8F4C230E9F08230D8F4682FF1
:1003D0008C2FCF912BC1C530A8F08BEA90E08CDF39
:1003E000813081F48BEA90E087DFC82F8BEA90E0C0
:1003F00083DFC13011F0C43029F4682F70E08C2FF6
:10040000CF91A8C0CF9108959091B1008091B00094
:10041000981790F48091B100E091B200F091B30090
:10042000E80FF11D60818BEA90E064DF8091B100FC
:100430008F5F8093B100089560E08BEA90E05ACF1F
:1004400061E081E0BCD061E083E0B9D061E084E0AC
:10045000B6D061E085E0B3D064E28BEA90E048DF9B
:1004600064E072E08BEA90E04DDF67E871E08BEAD0
:1004700090E043CF089583B7887F83BF8AB58C7F90
:1004800081608ABD83B7877F83BF83B7887F83609E
:1004900083BF089578941F920F920FB60F92112484
:1004A0002F933F938F939F93AF93BF938091B5000A
:1004B0009091B600A091B700B091B8003091B4000F
:1004C0002CE7230F2D3728F02FEF230F0196A11DC6
:1004D000B11D2093B4008093B5009093B600A09313
:1004E000B700B093B8008091B9009091BA00A09184
:1004F000BB00B091BC000196A11DB11D8093B90055
:100500009093BA00A093BB00B093BC00BF91AF9191
:100510009F918F913F912F910F900FBE0F901F9041
:100520001895789480B7806880BF80B7806480BF5A
:100530008CB580648CBD8FEF8DBD80B7807F876068
:1005400080BF89B7846089BF96DF86B1876086B92E
:10055000379A08951F93CF93DF93182FEB0161E033
:100560002ED01C161D0614F060E004C0CF3FD1054C
:1005700034F061E0812FDF91CF911F9157C01111AD
:1005800006C08AB58F7380688ABDC9BD14C011309A
:1005900031F48AB58F7C80628ABDC8BD0CC014302E
:1005A00031F48CB58F7C80628CBDCBBD04C0C0386B
:1005B000D105FCF6D9CFDF91CF911F910895CF934C
:1005C000DF9390E0FC01E25EFF4F2491FC01EC5DC3
:1005D000FF4F8491882339F190E0FC01E45DFF4FE7
:1005E000A491B0E0FC01E65DFF4F8491611106C06B
:1005F0009FB7F8948C912095822313C0623069F4E0
:10060000C82FD0E09FB7F8948C91322F3095832378
:100610008C938881822B888305C09FB7F8948C9136
:10062000822B8C939FBFDF91CF910895A82FB0E0CC
:10063000FD01E25EFF4F9491FD01EC5DFF4FE491FF
:10064000EE2311F1811103C08AB58F7304C081308C
:1006500021F48AB58F7C8ABD05C0843019F48CB52D
:100660008F7C8CBDF0E0E65DFF4FA491B0E02FB72A
:10067000611105C0F8948C919095892303C0F8947A
:100680008C91892B8C932FBF08954BDFD9DEF2DE3E
:06069000FECFF894FFCF3D
:10069600018001011300FE01FEFF05FF010102EFCB
:1006A60001EF0104FFFFFFFF040101030501010043
:00000001FF
